S00D000053544B62642E737265635F
S11300000C9434000C949A000C94D5000C94510078
S11300100C9451000C9451000C9451000C94510018
S11300200C9451000C9451000C9451000C94530006
S11300300C9451000C9451000C9451000C945100F8
S11300400C9451000C9451000C9451000C945100E8
S11300500C9451000C9451000C9451000C945100D8
S11300600C9451000C94510011241FBECFEFD4E026
S1130070DEBFCDBF11E0A0E0B1E0EAECF4E002C0E5
S113008005900D92A030B107D9F721E0A0E0B1E0CE
S113009001C01D92A432B207E1F70E9410010C9432
S11300A063020C9400001F920F920FB60F9211245A
S11300B08F939F93AF93BF9380910001909101011F
S11300C0A0910201B09103010196A11DB11D80937D
S11300D0000190930101A0930201B0930301BF9129
S11300E0AF919F918F910F900FBE0F901F90189515
S11300F0109200011092010110920201109203016A
S1130100EFE6F0E0808182608083E1E8F0E08081C6
S11301108C6080838DE790E09093890080938800C1
S11301200895609100017091010180910201909104
S1130130030108951F920F920FB60F9211242F936B
S11301403F934F935F936F937F938F939F93AF935B
S1130150BF93EF93FF9388B18C7F88B98AEF90E0C7
S1130160A0E0B0E08093100190931101A0931201DC
S1130170B09313010E94910060930C0170930D01E0
S113018080930E0190930F01FF91EF91BF91AF9176
S11301909F918F917F916F915F914F913F912F919B
S11301A00F900FBE0F901F9018951F920F920FB6CD
S11301B00F9211242F933F934F935F936F937F93E9
S11301C08F939F93AF93BF93EF93FF9388B1837FF4
S11301D088B98AEF90E0A0E0B0E0809308019093A2
S11301E00901A0930A01B0930B010E94910060934E
S11301F00401709305018093060190930701FF9118
S1130200EF91BF91AF919F918F917F916F915F918A
S11302104F913F912F910F900FBE0F901F90189503
S11302201AB81BB8E9E6F0E080818A60808383E035
S11302308DBB8FE087B918B8259A15B80E9478004D
S11302400F2EFAEFCF2ED12CE12CF12CF02DC092F1
S11302501001D0921101E0921201F09213010E9458
S1130260910060930C0170930D0180930E019093A3
S11302700F01C0920801D0920901E0920A01F092A4
S11302800B010E9491006093040170930501809317
S113029006019093070178940F2EFCE0CF2EF1E035
S11302A0DF2EF02D0F2EF0E1EF2EF1E0FF2EF02DDA
S11302B00F2EF0E2AF2EF1E0BF2EF02D0F2EFCE159
S11302C08F2EF1E09F2EF02D04E011E0C8E0D1E084
S11302D00F2EF8E16F2EF1E07F2EF02D86B18370A2
S11302E081F10E949100D4012D913D914D915C9139
S11302F01B012C01221A330A440A550AF501808194
S11303009181A281B381281639064A065B0608F456
S113031060C088B18C7F88B90F2EFAEF2F2E312C54
S1130320412C512CF02DD7012D923D924D925C928F
S113033013970E949100F6016083718382839383F3
S113034048C00E949100D6012D913D914D915C9140
S11303501B012C01221A330A440A550AF701808131
S11303609181A281B381281639064A065B0688F179
S11303704C9B17C00F2EF2E52F2EF3E03F2E412C9D
S1130380512CF02DD5012D923D924D925C921397F4
S11303900E949100F4016083718382839383409A65
S11303A018C04D9B16C00F2EF2E52F2EF3E03F2E02
S11303B0412C512CF02DD5012D923D924D925C9201
S11303C013970E949100F401608371838283938365
S11303D0419A86B18C7081F10E949100A4E1B1E050
S11303E02D913D914D915C911B012C01221A330AF0
S11303F0440A550AF30180819181A281B3812816B0
S113040039064A065B0608F469CF88B1837F88B948
S11304100F2EFAEF2F2E312C412C512CF02D288247
S113042039824A825B820E949100D8016D937D9348
S11304308D939C93139752CF0E949100F8012081D1
S11304403181428153811B012C01221A330A440A4F
S1130450550A88819981AA81BB81281639064A06E2
S11304605B0608F43BCF4E9B14C082E593E0A0E00A
S1130470B0E0F30180839183A283B3830E9491004F
S1130480A4E1B1E06D937D938D939C931397429A6D
S113049025CF4F9B23CF0F2EF2E52F2EF3E03F2ED7
S11304A0412C512CF02DD3012D923D924D925C9212
S11304B013970E949100E4E1F1E0608371838283E9
S10D04C09383439A0BCFF894FFCF07
S9030000FC
